{
  "transactions": [
    {
      "hash": "0xd4a846383dfa218f1c86f4e43b78df226350fcb0b8d7f8377b162a6f11f6191b",
      "transactionType": "CALL",
      "contractName": null,
      "contractAddress": "0xc92575554bca1b46988b7df2f3331dda80449055",
      "function": "setCooldown(uint256)",
      "arguments": [
        "60"
      ],
      "transaction": {
        "from": "0xdde1ee9fd2a83e7c5454d68db4d61c89ec4cb131",
        "to": "0xc92575554bca1b46988b7df2f3331dda80449055",
        "gas": "0xbc74",
        "value": "0x0",
        "input": "0x4fc3f41a000000000000000000000000000000000000000000000000000000000000003c",
        "nonce": "0x91",
        "chainId": "0xaa36a7"
      },
      "additionalContracts": [],
      "isFixedGasLimit": false
    }
  ],
  "receipts": [
    {
      "status": "0x1",
      "cumulativeGasUsed": "0xaf67e1",
      "logs": [
        {
          "address": "0xc92575554bca1b46988b7df2f3331dda80449055",
          "topics": [
            "0x7b0c0b7914285f737e1247f96f5707d37b9e7f79f29a49b7c47a47733271e6c8"
          ],
          "data": "0x000000000000000000000000000000000000000000000000000000000000003c",
          "blockHash": "0x49af39b048c3721527d675b5d00e522297a0e7d31e38ae18f85bdf89cc1bb808",
          "blockNumber": "0x729a9f",
          "transactionHash": "0xd4a846383dfa218f1c86f4e43b78df226350fcb0b8d7f8377b162a6f11f6191b",
          "transactionIndex": "0x42",
          "logIndex": "0x6d",
          "removed": false
        }
      ],
      "logsBloom": "0x00000000000000000000000000000000000000000000000000000000000000000000000000000000000000000000010000000000000000000000000000000000000000000000000000000000000000000000000000000000000000000000000000000000000000000000000020000000000000000000000000000000000000000000000000000000000000000000000000000000000000000000000000000000000000000000000000000000000000000000000000000100000000000000100000000000000000000000000000000000000000000000000800000000000000000000000000000000000000010000000000000000000000000000000000000000",
      "type": "0x2",
      "transactionHash": "0xd4a846383dfa218f1c86f4e43b78df226350fcb0b8d7f8377b162a6f11f6191b",
      "transactionIndex": "0x42",
      "blockHash": "0x49af39b048c3721527d675b5d00e522297a0e7d31e38ae18f85bdf89cc1bb808",
      "blockNumber": "0x729a9f",
      "gasUsed": "0x8870",
      "effectiveGasPrice": "0x23d42275",
      "from": "0xdde1ee9fd2a83e7c5454d68db4d61c89ec4cb131",
      "to": "0xc92575554bca1b46988b7df2f3331dda80449055",
      "contractAddress": null
    }
  ],
  "libraries": [],
  "pending": [],
  "returns": {},
  "timestamp": 1737110820,
  "chain": 11155111,
  "commit": "c2670fc"
}