{
  "transactions": [
    {
      "hash": null,
      "transactionType": "CALL",
      "contractName": null,
      "contractAddress": "0xb933d4ff5a0e7bfe6ab7da72b5dce2259030252f",
      "function": "approve(address,uint256)",
      "arguments": [
        "0x3fad7e7679bE231B54D5e9DDd6c110850AA8EAC6",
        "0"
      ],
      "transaction": {
        "from": "0xdde1ee9fd2a83e7c5454d68db4d61c89ec4cb131",
        "to": "0xb933d4ff5a0e7bfe6ab7da72b5dce2259030252f",
        "gas": "0x9035",
        "value": "0x0",
        "input": "0x095ea7b30000000000000000000000003fad7e7679be231b54d5e9ddd6c110850aa8eac60000000000000000000000000000000000000000000000000000000000000000",
        "nonce": "0x18",
        "chainId": "0x2105"
      },
      "additionalContracts": [],
      "isFixedGasLimit": false
    }
  ],
  "receipts": [],
  "libraries": [],
  "pending": [],
  "returns": {},
  "timestamp": 1737040587,
  "chain": 8453,
  "commit": "ba92cd7"
}