{
  "transactions": [
    {
      "hash": "0xe28e52f01c19f90edbf574f57540d4e81df3881ae1beb6d4fab9fc72593aa1d2",
      "transactionType": "CALL",
      "contractName": null,
      "contractAddress": "0xd4c00bf73263385a18dfd7e10fc43a5a2d6a6eb7",
      "function": "grantRole(bytes32,address)",
      "arguments": [
        "0x0000000000000000000000000000000000000000000000000000000000000000",
        "0x70f754aFEaA9E15081BFE622734e1935141e8223"
      ],
      "transaction": {
        "from": "0xdde1ee9fd2a83e7c5454d68db4d61c89ec4cb131",
        "to": "0xd4c00bf73263385a18dfd7e10fc43a5a2d6a6eb7",
        "gas": "0x140d9",
        "value": "0x0",
        "input": "0x2f2ff15d000000000000000000000000000000000000000000000000000000000000000000000000000000000000000070f754afeaa9e15081bfe622734e1935141e8223",
        "nonce": "0x11",
        "chainId": "0x2105"
      },
      "additionalContracts": [],
      "isFixedGasLimit": false
    }
  ],
  "receipts": [
    {
      "status": "0x1",
      "cumulativeGasUsed": "0x206afcf",
      "logs": [
        {
          "address": "0xd4c00bf73263385a18dfd7e10fc43a5a2d6a6eb7",
          "topics": [
            "0x2f8788117e7eff1d82e926ec794901d17c78024a50270940304540a733656f0d",
            "0x0000000000000000000000000000000000000000000000000000000000000000",
            "0x00000000000000000000000070f754afeaa9e15081bfe622734e1935141e8223",
            "0x000000000000000000000000dde1ee9fd2a83e7c5454d68db4d61c89ec4cb131"
          ],
          "data": "0x",
          "blockHash": "0xb5e7c591e518e46e36424c4130f8be2d73e12812ad1f2a70b723a6558a82c08d",
          "blockNumber": "0x17f294e",
          "blockTimestamp": "0x6788af7f",
          "transactionHash": "0xe28e52f01c19f90edbf574f57540d4e81df3881ae1beb6d4fab9fc72593aa1d2",
          "transactionIndex": "0x93",
          "logIndex": "0x1c2",
          "removed": false
        }
      ],
      "logsBloom": "0x00000204000000000000000000000000000000000000000000000000000000000000000000000000000000000000000000000000000010000000008000000000200000001000000000000000000000000000000000000000000000000000000000000000020000000000000000000800000000000000000000000000000000000000000000000000000000000000080000000000000000000000000000000000000000200000000000000000000000000000000004000000001000000000000000000000000000000000000000000000000000000000000100000000000020000000010000000000000000000000000000000000000000000000000000000000",
      "type": "0x2",
      "transactionHash": "0xe28e52f01c19f90edbf574f57540d4e81df3881ae1beb6d4fab9fc72593aa1d2",
      "transactionIndex": "0x93",
      "blockHash": "0xb5e7c591e518e46e36424c4130f8be2d73e12812ad1f2a70b723a6558a82c08d",
      "blockNumber": "0x17f294e",
      "gasUsed": "0xdb63",
      "effectiveGasPrice": "0x91c452",
      "from": "0xdde1ee9fd2a83e7c5454d68db4d61c89ec4cb131",
      "to": "0xd4c00bf73263385a18dfd7e10fc43a5a2d6a6eb7",
      "contractAddress": null,
      "l1BaseFeeScalar": "0x8dd",
      "l1BlobBaseFee": "0x106c3cc3",
      "l1BlobBaseFeeScalar": "0x101c12",
      "l1Fee": "0x9098e0c6a",
      "l1GasPrice": "0x9fadc457",
      "l1GasUsed": "0x640"
    }
  ],
  "libraries": [],
  "pending": [],
  "returns": {},
  "timestamp": 1737011073,
  "chain": 8453,
  "commit": "eec4fb5"
}