{
  "transactions": [
    {
      "hash": "0xd18f5c9114f4825c8520b37ae774ce69257a8ade7dca63b5cc365cd302e9b134",
      "transactionType": "CALL",
      "contractName": null,
      "contractAddress": "0x3fad7e7679be231b54d5e9ddd6c110850aa8eac6",
      "function": "grantRole(bytes32,address)",
      "arguments": [
        "0x0000000000000000000000000000000000000000000000000000000000000000",
        "0x70f754aFEaA9E15081BFE622734e1935141e8223"
      ],
      "transaction": {
        "from": "0xdde1ee9fd2a83e7c5454d68db4d61c89ec4cb131",
        "to": "0x3fad7e7679be231b54d5e9ddd6c110850aa8eac6",
        "gas": "0x12f63",
        "value": "0x0",
        "input": "0x2f2ff15d000000000000000000000000000000000000000000000000000000000000000000000000000000000000000070f754afeaa9e15081bfe622734e1935141e8223",
        "nonce": "0x12",
        "chainId": "0x2105"
      },
      "additionalContracts": [],
      "isFixedGasLimit": false
    }
  ],
  "receipts": [
    {
      "status": "0x1",
      "cumulativeGasUsed": "0x2765b98",
      "logs": [
        {
          "address": "0x3fad7e7679be231b54d5e9ddd6c110850aa8eac6",
          "topics": [
            "0x2f8788117e7eff1d82e926ec794901d17c78024a50270940304540a733656f0d",
            "0x0000000000000000000000000000000000000000000000000000000000000000",
            "0x00000000000000000000000070f754afeaa9e15081bfe622734e1935141e8223",
            "0x000000000000000000000000dde1ee9fd2a83e7c5454d68db4d61c89ec4cb131"
          ],
          "data": "0x",
          "blockHash": "0x94e029bfbc74522e9d4a45383bfcc6ab84e9db157b0f22fa5f3d0285415565f3",
          "blockNumber": "0x17f2962",
          "blockTimestamp": "0x6788afa7",
          "transactionHash": "0xd18f5c9114f4825c8520b37ae774ce69257a8ade7dca63b5cc365cd302e9b134",
          "transactionIndex": "0x89",
          "logIndex": "0x169",
          "removed": false
        }
      ],
      "logsBloom": "0x00000004000000000000000000000000000000000000000000000000000000000000000000000000000000000000000000000000000010000000008000000000200000001000000000002000000000000000000000000000080000000000000000000000020000000000000000000800000000000000000000000000000000000001000000000000000000000000000000000000000000000000000000000000000000200000000000000000000000000000000000000000001000000000000000000000000000000000000000000000000000000000000100000000000020000000010000000000000000000000000000000000000000000000000000000000",
      "type": "0x2",
      "transactionHash": "0xd18f5c9114f4825c8520b37ae774ce69257a8ade7dca63b5cc365cd302e9b134",
      "transactionIndex": "0x89",
      "blockHash": "0x94e029bfbc74522e9d4a45383bfcc6ab84e9db157b0f22fa5f3d0285415565f3",
      "blockNumber": "0x17f2962",
      "gasUsed": "0xdba6",
      "effectiveGasPrice": "0x91987c",
      "from": "0xdde1ee9fd2a83e7c5454d68db4d61c89ec4cb131",
      "to": "0x3fad7e7679be231b54d5e9ddd6c110850aa8eac6",
      "contractAddress": null,
      "l1BaseFeeScalar": "0x8dd",
      "l1BlobBaseFee": "0x11149544",
      "l1BlobBaseFeeScalar": "0x101c12",
      "l1Fee": "0x94ffc887b",
      "l1GasPrice": "0x9ff49bcb",
      "l1GasUsed": "0x640"
    }
  ],
  "libraries": [],
  "pending": [],
  "returns": {},
  "timestamp": 1737011114,
  "chain": 8453,
  "commit": "eec4fb5"
}