{
  "transactions": [
    {
      "hash": null,
      "transactionType": "CALL",
      "contractName": null,
      "contractAddress": "0x3fad7e7679be231b54d5e9ddd6c110850aa8eac6",
      "function": "revokeRole(bytes32,address)",
      "arguments": [
        "0x0000000000000000000000000000000000000000000000000000000000000000",
        "0xdde1Ee9Fd2a83E7C5454D68Db4d61c89ec4Cb131"
      ],
      "transaction": {
        "from": "0xdde1ee9fd2a83e7c5454d68db4d61c89ec4cb131",
        "to": "0x3fad7e7679be231b54d5e9ddd6c110850aa8eac6",
        "gas": "0xadba",
        "value": "0x0",
        "input": "0xd547741f0000000000000000000000000000000000000000000000000000000000000000000000000000000000000000dde1ee9fd2a83e7c5454d68db4d61c89ec4cb131",
        "nonce": "0x14",
        "chainId": "0x2105"
      },
      "additionalContracts": [],
      "isFixedGasLimit": false
    }
  ],
  "receipts": [],
  "libraries": [],
  "pending": [],
  "returns": {},
  "timestamp": 1737012083,
  "chain": 8453,
  "commit": "eec4fb5"
}