{
  "transactions": [
    {
      "hash": "0xc08bf1a975cd9a189817a1d30bc06fd21ddc49a003f1955de380f277c7050ad7",
      "transactionType": "CALL",
      "contractName": null,
      "contractAddress": "0xbed1947d16fde401a8c15369ec2d09e45819f371",
      "function": "grantRole(bytes32,address)",
      "arguments": [
        "0xe2f4eaae4a9751e85a3e4a7b9587827a877f29914755229b07a7b2da98285f70",
        "0xDd7bEA0F495cC11d21Ee715663B21607f41DbaaF"
      ],
      "transaction": {
        "from": "0xf6e9df94b9b0388d71b6aa35651630d7ed935349",
        "to": "0xbed1947d16fde401a8c15369ec2d09e45819f371",
        "gas": "0x1311a",
        "value": "0x0",
        "input": "0x2f2ff15de2f4eaae4a9751e85a3e4a7b9587827a877f29914755229b07a7b2da98285f70000000000000000000000000dd7bea0f495cc11d21ee715663b21607f41dbaaf",
        "nonce": "0x13",
        "chainId": "0xaa36a7"
      },
      "additionalContracts": [],
      "isFixedGasLimit": false
    }
  ],
  "receipts": [
    {
      "status": "0x1",
      "cumulativeGasUsed": "0x8018ed",
      "logs": [
        {
          "address": "0xbed1947d16fde401a8c15369ec2d09e45819f371",
          "topics": [
            "0x2f8788117e7eff1d82e926ec794901d17c78024a50270940304540a733656f0d",
            "0xe2f4eaae4a9751e85a3e4a7b9587827a877f29914755229b07a7b2da98285f70",
            "0x000000000000000000000000dd7bea0f495cc11d21ee715663b21607f41dbaaf",
            "0x000000000000000000000000f6e9df94b9b0388d71b6aa35651630d7ed935349"
          ],
          "data": "0x",
          "blockHash": "0xe2c87d9b4a1d7ba6291a936e014723ffa547b714ae4ae8ef19738c4ae66a8695",
          "blockNumber": "0x721da5",
          "transactionHash": "0xc08bf1a975cd9a189817a1d30bc06fd21ddc49a003f1955de380f277c7050ad7",
          "transactionIndex": "0x4f",
          "logIndex": "0x50",
          "removed": false
        }
      ],
      "logsBloom": "0x00000004000000000000000000000000000400000000000000001000000000000000000000000000000000000000000000000000000000000000000000000000002000000000000000400000000000000000000000010000000000000000000000000000000000000000000000200000000000000000000100000000000000000000000000000000000000000000000000000000000000000000000000000000000000000000000000000000000000000000000000000000001000000000000000000000000000000000000001000000000000000004000100000000000000000000000000010000000000000000000000400000000000000002000000000000",
      "type": "0x2",
      "transactionHash": "0xc08bf1a975cd9a189817a1d30bc06fd21ddc49a003f1955de380f277c7050ad7",
      "transactionIndex": "0x4f",
      "blockHash": "0xe2c87d9b4a1d7ba6291a936e014723ffa547b714ae4ae8ef19738c4ae66a8695",
      "blockNumber": "0x721da5",
      "gasUsed": "0xdce4",
      "effectiveGasPrice": "0x9c7366f",
      "from": "0xf6e9df94b9b0388d71b6aa35651630d7ed935349",
      "to": "0xbed1947d16fde401a8c15369ec2d09e45819f371",
      "contractAddress": null
    }
  ],
  "libraries": [],
  "pending": [],
  "returns": {},
  "timestamp": 1736725585,
  "chain": 11155111,
  "commit": "8c133a2"
}