{
  "transactions": [
    {
      "hash": "0x8b7c2cf51171c6e19a4f5ea95c53e9135805bfc55e661ae1a3fb3eed699fd14a",
      "transactionType": "CALL",
      "contractName": null,
      "contractAddress": "0x0f5f371d272563bd94106d5c56ef26269e2a65db",
      "function": "grantRole(bytes32,address)",
      "arguments": [
        "0xe2f4eaae4a9751e85a3e4a7b9587827a877f29914755229b07a7b2da98285f70",
        "0xf6e9DF94B9B0388d71B6Aa35651630D7Ed935349"
      ],
      "transaction": {
        "from": "0xf6e9df94b9b0388d71b6aa35651630d7ed935349",
        "to": "0x0f5f371d272563bd94106d5c56ef26269e2a65db",
        "gas": "0x1430b",
        "value": "0x0",
        "input": "0x2f2ff15de2f4eaae4a9751e85a3e4a7b9587827a877f29914755229b07a7b2da98285f70000000000000000000000000f6e9df94b9b0388d71b6aa35651630d7ed935349",
        "nonce": "0x23",
        "chainId": "0xaa36a7"
      },
      "additionalContracts": [],
      "isFixedGasLimit": false
    }
  ],
  "receipts": [
    {
      "status": "0x1",
      "cumulativeGasUsed": "0xf0bf7b",
      "logs": [
        {
          "address": "0x0f5f371d272563bd94106d5c56ef26269e2a65db",
          "topics": [
            "0x2f8788117e7eff1d82e926ec794901d17c78024a50270940304540a733656f0d",
            "0xe2f4eaae4a9751e85a3e4a7b9587827a877f29914755229b07a7b2da98285f70",
            "0x000000000000000000000000f6e9df94b9b0388d71b6aa35651630d7ed935349",
            "0x000000000000000000000000f6e9df94b9b0388d71b6aa35651630d7ed935349"
          ],
          "data": "0x",
          "blockHash": "0x71cbd76944e7bad2836b6880a9002c5518e552365455913f5fa483cf4c2ec386",
          "blockNumber": "0x723019",
          "transactionHash": "0x8b7c2cf51171c6e19a4f5ea95c53e9135805bfc55e661ae1a3fb3eed699fd14a",
          "transactionIndex": "0x61",
          "logIndex": "0x89",
          "removed": false
        }
      ],
      "logsBloom": "0x00000004000000000000000000000000000400000000000000000000000000000000000000000000000000000000000000000000000000000000000000000000000000000000000000400040000000000000000000000000008000000000000000000000000000000000000000200000000000000000000100000000000000000000000000000000000000000000000000000000000000000000000000000000000000000000000000000000000000000000000000000000001000000000000000000000000000000000000001000000000000000004000100000000000000000000000000000000000000000000000000000000000000001000000000000000",
      "type": "0x2",
      "transactionHash": "0x8b7c2cf51171c6e19a4f5ea95c53e9135805bfc55e661ae1a3fb3eed699fd14a",
      "transactionIndex": "0x61",
      "blockHash": "0x71cbd76944e7bad2836b6880a9002c5518e552365455913f5fa483cf4c2ec386",
      "blockNumber": "0x723019",
      "gasUsed": "0xdce3",
      "effectiveGasPrice": "0x2922909df",
      "from": "0xf6e9df94b9b0388d71b6aa35651630d7ed935349",
      "to": "0x0f5f371d272563bd94106d5c56ef26269e2a65db",
      "contractAddress": null
    }
  ],
  "libraries": [],
  "pending": [],
  "returns": {},
  "timestamp": 1736782404,
  "chain": 11155111,
  "commit": "d671731"
}