{
  "transactions": [
    {
      "hash": "0x0ceaa6df1f588374fce24c9c14f6aa14c261acaf52e68343ca37bccd2dbf7a2d",
      "transactionType": "CALL",
      "contractName": null,
      "contractAddress": "0xe85f31a101506da9958808267e92941cfe5839cc",
      "function": "grantRole(bytes32,address)",
      "arguments": [
        "0xe2f4eaae4a9751e85a3e4a7b9587827a877f29914755229b07a7b2da98285f70",
        "0xf6e9DF94B9B0388d71B6Aa35651630D7Ed935349"
      ],
      "transaction": {
        "from": "0xf6e9df94b9b0388d71b6aa35651630d7ed935349",
        "to": "0xe85f31a101506da9958808267e92941cfe5839cc",
        "gas": "0x1430b",
        "value": "0x0",
        "input": "0x2f2ff15de2f4eaae4a9751e85a3e4a7b9587827a877f29914755229b07a7b2da98285f70000000000000000000000000f6e9df94b9b0388d71b6aa35651630d7ed935349",
        "nonce": "0x1b",
        "chainId": "0xaa36a7"
      },
      "additionalContracts": [],
      "isFixedGasLimit": false
    }
  ],
  "receipts": [
    {
      "status": "0x1",
      "cumulativeGasUsed": "0xc6eec7",
      "logs": [
        {
          "address": "0xe85f31a101506da9958808267e92941cfe5839cc",
          "topics": [
            "0x2f8788117e7eff1d82e926ec794901d17c78024a50270940304540a733656f0d",
            "0xe2f4eaae4a9751e85a3e4a7b9587827a877f29914755229b07a7b2da98285f70",
            "0x000000000000000000000000f6e9df94b9b0388d71b6aa35651630d7ed935349",
            "0x000000000000000000000000f6e9df94b9b0388d71b6aa35651630d7ed935349"
          ],
          "data": "0x",
          "blockHash": "0x8dac575f0e3c6d754f5d797a1596ad5d770e66f4cf3924c395e28b9381975679",
          "blockNumber": "0x722f9c",
          "transactionHash": "0x0ceaa6df1f588374fce24c9c14f6aa14c261acaf52e68343ca37bccd2dbf7a2d",
          "transactionIndex": "0x46",
          "logIndex": "0x6c",
          "removed": false
        }
      ],
      "logsBloom": "0x00000004000000080000000000000000000400000000000000000000000000000000000000000000000000000000000000000000000000000000000000000000000000000000000000400000000000000000000000000000000000000000000000000000000000000000000000200000000000000000000100000000000000000000000000000000000000000000000000000000000000000000000000000000000000000000000000000000000000000000000000000000001000000000000000000000000000000000000001000000000000000005000100000000000000000000000000000000000000000000000000000000000000000000000000000000",
      "type": "0x2",
      "transactionHash": "0x0ceaa6df1f588374fce24c9c14f6aa14c261acaf52e68343ca37bccd2dbf7a2d",
      "transactionIndex": "0x46",
      "blockHash": "0x8dac575f0e3c6d754f5d797a1596ad5d770e66f4cf3924c395e28b9381975679",
      "blockNumber": "0x722f9c",
      "gasUsed": "0xdce3",
      "effectiveGasPrice": "0x433220a47",
      "from": "0xf6e9df94b9b0388d71b6aa35651630d7ed935349",
      "to": "0xe85f31a101506da9958808267e92941cfe5839cc",
      "contractAddress": null
    }
  ],
  "libraries": [],
  "pending": [],
  "returns": {},
  "timestamp": 1736780904,
  "chain": 11155111,
  "commit": "d671731"
}