{
  "transactions": [
    {
      "hash": "0xf9fd06db8d5e25d5f4360022d76aab2c53b74b12d7183409620f093a35819854",
      "transactionType": "CALL",
      "contractName": null,
      "contractAddress": "0xc2b209c308cf9162df8775525203b4d009dfc702",
      "function": "grantRole(bytes32,address)",
      "arguments": [
        "0xe2f4eaae4a9751e85a3e4a7b9587827a877f29914755229b07a7b2da98285f70",
        "0x0DB4bcD6ce5fABf443B37d1A1BF3dbB71EF19613"
      ],
      "transaction": {
        "from": "0xdde1ee9fd2a83e7c5454d68db4d61c89ec4cb131",
        "to": "0xc2b209c308cf9162df8775525203b4d009dfc702",
        "gas": "0x1430b",
        "value": "0x0",
        "input": "0x2f2ff15de2f4eaae4a9751e85a3e4a7b9587827a877f29914755229b07a7b2da98285f700000000000000000000000000db4bcd6ce5fabf443b37d1a1bf3dbb71ef19613",
        "nonce": "0x96",
        "chainId": "0xaa36a7"
      },
      "additionalContracts": [],
      "isFixedGasLimit": false
    }
  ],
  "receipts": [
    {
      "status": "0x1",
      "cumulativeGasUsed": "0x73185b",
      "logs": [
        {
          "address": "0xc2b209c308cf9162df8775525203b4d009dfc702",
          "topics": [
            "0x2f8788117e7eff1d82e926ec794901d17c78024a50270940304540a733656f0d",
            "0xe2f4eaae4a9751e85a3e4a7b9587827a877f29914755229b07a7b2da98285f70",
            "0x0000000000000000000000000db4bcd6ce5fabf443b37d1a1bf3dbb71ef19613",
            "0x000000000000000000000000dde1ee9fd2a83e7c5454d68db4d61c89ec4cb131"
          ],
          "data": "0x",
          "blockHash": "0x3b58245b7455fe20cf52d9ca1544118b9fc1d039a3df2b88a1a22e1b70efd203",
          "blockNumber": "0x729aba",
          "transactionHash": "0xf9fd06db8d5e25d5f4360022d76aab2c53b74b12d7183409620f093a35819854",
          "transactionIndex": "0x44",
          "logIndex": "0x70",
          "removed": false
        }
      ],
      "logsBloom": "0x00000004000000000000000000000000000000000000000000000000000000000000000000000000000000000000000000000000000000000000008000000000000000001000000000000000000000000000000000000000000000000000000000000000000000000000000004000000000000000000000100000000000000000000000000000000000000000000800000000000000000000000000000000000000000000000000000000000000000000000000000080100001000000000000000000000000000000010000001000000000000000004000100000000000000000000010000000000000000000000000000004000000000000000000000000000",
      "type": "0x2",
      "transactionHash": "0xf9fd06db8d5e25d5f4360022d76aab2c53b74b12d7183409620f093a35819854",
      "transactionIndex": "0x44",
      "blockHash": "0x3b58245b7455fe20cf52d9ca1544118b9fc1d039a3df2b88a1a22e1b70efd203",
      "blockNumber": "0x729aba",
      "gasUsed": "0xdce3",
      "effectiveGasPrice": "0x1220aec9",
      "from": "0xdde1ee9fd2a83e7c5454d68db4d61c89ec4cb131",
      "to": "0xc2b209c308cf9162df8775525203b4d009dfc702",
      "contractAddress": null
    }
  ],
  "libraries": [],
  "pending": [],
  "returns": {},
  "timestamp": 1737111144,
  "chain": 11155111,
  "commit": "c2670fc"
}