{
  "transactions": [
    {
      "hash": "0x27aa3ce4ff2b868aa695b5c80b84976823b233fd23701cc0581aa6097370a11f",
      "transactionType": "CALL",
      "contractName": null,
      "contractAddress": "0x6e858e6d8c0d2940ce8d5bf654042d896d1e197b",
      "function": "grantRole(bytes32,address)",
      "arguments": [
        "0xe2f4eaae4a9751e85a3e4a7b9587827a877f29914755229b07a7b2da98285f70",
        "0x0856D141C3C400a7922E0ece4fC9b458bf1b07FC"
      ],
      "transaction": {
        "from": "0xf6e9df94b9b0388d71b6aa35651630d7ed935349",
        "to": "0x6e858e6d8c0d2940ce8d5bf654042d896d1e197b",
        "gas": "0x13108",
        "value": "0x0",
        "input": "0x2f2ff15de2f4eaae4a9751e85a3e4a7b9587827a877f29914755229b07a7b2da98285f700000000000000000000000000856d141c3c400a7922e0ece4fc9b458bf1b07fc",
        "nonce": "0x2f",
        "chainId": "0xaa36a7"
      },
      "additionalContracts": [],
      "isFixedGasLimit": false
    }
  ],
  "receipts": [
    {
      "status": "0x1",
      "cumulativeGasUsed": "0x1027a7c",
      "logs": [
        {
          "address": "0x6e858e6d8c0d2940ce8d5bf654042d896d1e197b",
          "topics": [
            "0x2f8788117e7eff1d82e926ec794901d17c78024a50270940304540a733656f0d",
            "0xe2f4eaae4a9751e85a3e4a7b9587827a877f29914755229b07a7b2da98285f70",
            "0x0000000000000000000000000856d141c3c400a7922e0ece4fc9b458bf1b07fc",
            "0x000000000000000000000000f6e9df94b9b0388d71b6aa35651630d7ed935349"
          ],
          "data": "0x",
          "blockHash": "0x554d0e42125761259c069f9e6c47d8ba0654418f0282881c3472378c5d47a382",
          "blockNumber": "0x726aee",
          "transactionHash": "0x27aa3ce4ff2b868aa695b5c80b84976823b233fd23701cc0581aa6097370a11f",
          "transactionIndex": "0x70",
          "logIndex": "0xa7",
          "removed": false
        }
      ],
      "logsBloom": "0x00000004000000000000000000000000000400000000000000000000000000000000000000000000000000000000000008000000000000000000000000000000000000000000000000400020000000000000000000000000000000000000000000000000000000000000000000200000000000000000000100000000000000000000000000000000000000000000000000000000000000000000000000000000000000000000000000000000000000000000000001000000001000000000000000000000000000000000000001000000000000000004000100000000000000000000000000000000000000000000000000000000010000420000000000000000",
      "type": "0x2",
      "transactionHash": "0x27aa3ce4ff2b868aa695b5c80b84976823b233fd23701cc0581aa6097370a11f",
      "transactionIndex": "0x70",
      "blockHash": "0x554d0e42125761259c069f9e6c47d8ba0654418f0282881c3472378c5d47a382",
      "blockNumber": "0x726aee",
      "gasUsed": "0xdcd7",
      "effectiveGasPrice": "0x2732b104a",
      "from": "0xf6e9df94b9b0388d71b6aa35651630d7ed935349",
      "to": "0x6e858e6d8c0d2940ce8d5bf654042d896d1e197b",
      "contractAddress": null
    }
  ],
  "libraries": [],
  "pending": [],
  "returns": {},
  "timestamp": 1736963809,
  "chain": 11155111,
  "commit": "dbd8124"
}