{
  "transactions": [
    {
      "hash": "0x656d48b1a07d54d345971d63ea801a8d57c34b830692eb344af4960968e5217f",
      "transactionType": "CALL",
      "contractName": null,
      "contractAddress": "0xb933d4ff5a0e7bfe6ab7da72b5dce2259030252f",
      "function": "approve(address,uint256)",
      "arguments": [
        "0x3fad7e7679bE231B54D5e9DDd6c110850AA8EAC6",
        "0"
      ],
      "transaction": {
        "from": "0xdde1ee9fd2a83e7c5454d68db4d61c89ec4cb131",
        "to": "0xb933d4ff5a0e7bfe6ab7da72b5dce2259030252f",
        "gas": "0x9035",
        "value": "0x0",
        "input": "0x095ea7b30000000000000000000000003fad7e7679be231b54d5e9ddd6c110850aa8eac60000000000000000000000000000000000000000000000000000000000000000",
        "nonce": "0x18",
        "chainId": "0x2105"
      },
      "additionalContracts": [],
      "isFixedGasLimit": false
    }
  ],
  "receipts": [
    {
      "status": "0x1",
      "cumulativeGasUsed": "0x1a09d64",
      "logs": [
        {
          "address": "0xb933d4ff5a0e7bfe6ab7da72b5dce2259030252f",
          "topics": [
            "0x8c5be1e5ebec7d5bd14f71427d1e84f3dd0314c0f7b2291e5b200ac8c7c3b925",
            "0x000000000000000000000000dde1ee9fd2a83e7c5454d68db4d61c89ec4cb131",
            "0x0000000000000000000000003fad7e7679be231b54d5e9ddd6c110850aa8eac6"
          ],
          "data": "0x0000000000000000000000000000000000000000000000000000000000000000",
          "blockHash": "0xeefa8ddcc9926e712b8877df1ebfc33f7297064d7cf62f2487be164fbe5e7d8b",
          "blockNumber": "0x17f62ff",
          "blockTimestamp": "0x678922e1",
          "transactionHash": "0x656d48b1a07d54d345971d63ea801a8d57c34b830692eb344af4960968e5217f",
          "transactionIndex": "0x66",
          "logIndex": "0x1c1",
          "removed": false
        }
      ],
      "logsBloom": "0x00000000000000000000000000000000000000040000000000000000000000000000000000000000000000000000000000000000000000000000008000200000000000001000000000000000000000000000000000000000000000000000000000000000000000000000000000000000000000000000000000000000000010000000000000000040000001000000000000000000000000000000000000000000020000000000000000000000000000000000000000000002000000000000000000000000000000000000000000000000000000000000000000000000000000000010010000000000000000000000000000000000000000001000000000000000",
      "type": "0x2",
      "transactionHash": "0x656d48b1a07d54d345971d63ea801a8d57c34b830692eb344af4960968e5217f",
      "transactionIndex": "0x66",
      "blockHash": "0xeefa8ddcc9926e712b8877df1ebfc33f7297064d7cf62f2487be164fbe5e7d8b",
      "blockNumber": "0x17f62ff",
      "gasUsed": "0x6868",
      "effectiveGasPrice": "0x406917",
      "from": "0xdde1ee9fd2a83e7c5454d68db4d61c89ec4cb131",
      "to": "0xb933d4ff5a0e7bfe6ab7da72b5dce2259030252f",
      "contractAddress": null,
      "l1BaseFeeScalar": "0x8dd",
      "l1BlobBaseFee": "0x224dc5575b",
      "l1BlobBaseFeeScalar": "0x101c12",
      "l1Fee": "0xe32ebb06e07",
      "l1GasPrice": "0x3a6cc6325",
      "l1GasUsed": "0x640"
    }
  ],
  "libraries": [],
  "pending": [],
  "returns": {},
  "timestamp": 1737040610,
  "chain": 8453,
  "commit": "ba92cd7"
}