{
  "transactions": [
    {
      "hash": null,
      "transactionType": "CALL",
      "contractName": null,
      "contractAddress": "0x3fad7e7679be231b54d5e9ddd6c110850aa8eac6",
      "function": "setCooldown(uint256)",
      "arguments": [
        "57600"
      ],
      "transaction": {
        "from": "0xdde1ee9fd2a83e7c5454d68db4d61c89ec4cb131",
        "to": "0x3fad7e7679be231b54d5e9ddd6c110850aa8eac6",
        "gas": "0xbc74",
        "value": "0x0",
        "input": "0x4fc3f41a000000000000000000000000000000000000000000000000000000000000e100",
        "nonce": "0xe",
        "chainId": "0x2105"
      },
      "additionalContracts": [],
      "isFixedGasLimit": false
    }
  ],
  "receipts": [],
  "libraries": [],
  "pending": [],
  "returns": {},
  "timestamp": 1736977502,
  "chain": 8453,
  "commit": "eec4fb5"
}