{
  "transactions": [
    {
      "hash": null,
      "transactionType": "CALL",
      "contractName": null,
      "contractAddress": "0xd4c00bf73263385a18dfd7e10fc43a5a2d6a6eb7",
      "function": "grantRole(bytes32,address)",
      "arguments": [
        "0xe2f4eaae4a9751e85a3e4a7b9587827a877f29914755229b07a7b2da98285f70",
        "0x7F281C80D1C00db36D3c555BB3175c78aB04FBd9"
      ],
      "transaction": {
        "from": "0xdde1ee9fd2a83e7c5454d68db4d61c89ec4cb131",
        "to": "0xd4c00bf73263385a18dfd7e10fc43a5a2d6a6eb7",
        "gas": "0x1430b",
        "value": "0x0",
        "input": "0x2f2ff15de2f4eaae4a9751e85a3e4a7b9587827a877f29914755229b07a7b2da98285f700000000000000000000000007f281c80d1c00db36d3c555bb3175c78ab04fbd9",
        "nonce": "0xa",
        "chainId": "0x2105"
      },
      "additionalContracts": [],
      "isFixedGasLimit": false
    }
  ],
  "receipts": [],
  "libraries": [],
  "pending": [],
  "returns": {},
  "timestamp": 1736972981,
  "chain": 8453,
  "commit": "11b22d0"
}