{
  "transactions": [
    {
      "hash": "0xc7bde9bcca52480d5b7bbfec33628bef99a2780320d98f18a91c378b11d4c901",
      "transactionType": "CALL",
      "contractName": null,
      "contractAddress": "0xd4c00bf73263385a18dfd7e10fc43a5a2d6a6eb7",
      "function": "revokeRole(bytes32,address)",
      "arguments": [
        "0x0000000000000000000000000000000000000000000000000000000000000000",
        "0xdde1Ee9Fd2a83E7C5454D68Db4d61c89ec4Cb131"
      ],
      "transaction": {
        "from": "0xdde1ee9fd2a83e7c5454d68db4d61c89ec4cb131",
        "to": "0xd4c00bf73263385a18dfd7e10fc43a5a2d6a6eb7",
        "gas": "0xadd6",
        "value": "0x0",
        "input": "0xd547741f0000000000000000000000000000000000000000000000000000000000000000000000000000000000000000dde1ee9fd2a83e7c5454d68db4d61c89ec4cb131",
        "nonce": "0x13",
        "chainId": "0x2105"
      },
      "additionalContracts": [],
      "isFixedGasLimit": false
    }
  ],
  "receipts": [
    {
      "status": "0x1",
      "cumulativeGasUsed": "0x27ed448",
      "logs": [
        {
          "address": "0xd4c00bf73263385a18dfd7e10fc43a5a2d6a6eb7",
          "topics": [
            "0xf6391f5c32d9c69d2a47ea670b442974b53935d1edc7fd64eb21e047a839171b",
            "0x0000000000000000000000000000000000000000000000000000000000000000",
            "0x000000000000000000000000dde1ee9fd2a83e7c5454d68db4d61c89ec4cb131",
            "0x000000000000000000000000dde1ee9fd2a83e7c5454d68db4d61c89ec4cb131"
          ],
          "data": "0x",
          "blockHash": "0x98aa7cc9a58481ceb124ef128eb65e95f755128337dd36b7c40c6d773b7d5a43",
          "blockNumber": "0x17f2b1f",
          "blockTimestamp": "0x6788b321",
          "transactionHash": "0xc7bde9bcca52480d5b7bbfec33628bef99a2780320d98f18a91c378b11d4c901",
          "transactionIndex": "0xe3",
          "logIndex": "0x1db",
          "removed": false
        }
      ],
      "logsBloom": "0x00000200000000000000000000000000000000000000000000000000000000000000000000000000000000000000000000200000000000000000008000000000000000001000000000000000000000000000000000000000000000000000000040000000020000000000000000000800000000000000000000000000000000000000000040000000000000000000080000000000000000000000000000000000000000000000000000000000000000000000000004000000000000000000000000000000000000000000000000000000000000000000000000000000000020000000010000000000000000000000000000000000000000000000000000000000",
      "type": "0x2",
      "transactionHash": "0xc7bde9bcca52480d5b7bbfec33628bef99a2780320d98f18a91c378b11d4c901",
      "transactionIndex": "0xe3",
      "blockHash": "0x98aa7cc9a58481ceb124ef128eb65e95f755128337dd36b7c40c6d773b7d5a43",
      "blockNumber": "0x17f2b1f",
      "gasUsed": "0x7ddc",
      "effectiveGasPrice": "0x90d594",
      "from": "0xdde1ee9fd2a83e7c5454d68db4d61c89ec4cb131",
      "to": "0xd4c00bf73263385a18dfd7e10fc43a5a2d6a6eb7",
      "contractAddress": null,
      "l1BaseFeeScalar": "0x8dd",
      "l1BlobBaseFee": "0x9dba228",
      "l1BlobBaseFeeScalar": "0x101c12",
      "l1Fee": "0x6054abd70",
      "l1GasPrice": "0x89df0a3a",
      "l1GasUsed": "0x640"
    }
  ],
  "libraries": [],
  "pending": [],
  "returns": {},
  "timestamp": 1737012004,
  "chain": 8453,
  "commit": "eec4fb5"
}