{
  "transactions": [
    {
      "hash": "0x623ea12043aa85b0ea2dfcdfe6dfed9fe59b7152693a1d944ec0f55168a87770",
      "transactionType": "CALL",
      "contractName": null,
      "contractAddress": "0x3fad7e7679be231b54d5e9ddd6c110850aa8eac6",
      "function": "setCooldown(uint256)",
      "arguments": [
        "57600"
      ],
      "transaction": {
        "from": "0xdde1ee9fd2a83e7c5454d68db4d61c89ec4cb131",
        "to": "0x3fad7e7679be231b54d5e9ddd6c110850aa8eac6",
        "gas": "0xbc74",
        "value": "0x0",
        "input": "0x4fc3f41a000000000000000000000000000000000000000000000000000000000000e100",
        "nonce": "0xf",
        "chainId": "0x2105"
      },
      "additionalContracts": [],
      "isFixedGasLimit": false
    }
  ],
  "receipts": [
    {
      "status": "0x1",
      "cumulativeGasUsed": "0x1888901",
      "logs": [
        {
          "address": "0x3fad7e7679be231b54d5e9ddd6c110850aa8eac6",
          "topics": [
            "0x7b0c0b7914285f737e1247f96f5707d37b9e7f79f29a49b7c47a47733271e6c8"
          ],
          "data": "0x000000000000000000000000000000000000000000000000000000000000e100",
          "blockHash": "0xe6fa0f27ec968e8e1514b536eed6f4c3ea6fa711a691fac0a44393100660049f",
          "blockNumber": "0x17ee9ca",
          "blockTimestamp": "0x67883077",
          "transactionHash": "0x623ea12043aa85b0ea2dfcdfe6dfed9fe59b7152693a1d944ec0f55168a87770",
          "transactionIndex": "0x8e",
          "logIndex": "0x15b",
          "removed": false
        }
      ],
      "logsBloom": "0x00000000000000000000000000000000000000000000000000000000000000000000000000000000000000000000010000000000000000000000000000000000000000000000000000002000000000000000000000000000080000000000000000000000000000000000000020000000000000000000000000000000000000000001000000000000000000000000000000000000000000000000000000000000000000000000000000000000000000000000000000000000000000000000100000000000000000000000000000000000000000000000000000000000000000000000000000000000000000000000000000000000000000000000000000000000",
      "type": "0x2",
      "transactionHash": "0x623ea12043aa85b0ea2dfcdfe6dfed9fe59b7152693a1d944ec0f55168a87770",
      "transactionIndex": "0x8e",
      "blockHash": "0xe6fa0f27ec968e8e1514b536eed6f4c3ea6fa711a691fac0a44393100660049f",
      "blockNumber": "0x17ee9ca",
      "gasUsed": "0x8870",
      "effectiveGasPrice": "0x13c38f0",
      "from": "0xdde1ee9fd2a83e7c5454d68db4d61c89ec4cb131",
      "to": "0x3fad7e7679be231b54d5e9ddd6c110850aa8eac6",
      "contractAddress": null,
      "l1BaseFeeScalar": "0x8dd",
      "l1BlobBaseFee": "0x278aaebf5",
      "l1BlobBaseFeeScalar": "0x101c12",
      "l1Fee": "0x10ba5e198de",
      "l1GasPrice": "0x1daaaecb5",
      "l1GasUsed": "0x640"
    }
  ],
  "libraries": [],
  "pending": [],
  "returns": {},
  "timestamp": 1736978553,
  "chain": 8453,
  "commit": "eec4fb5"
}